{"abi":[{"type":"function","name":"billRestaurant","inputs":[{"name":"","type":"uint256","internalType":"uint256"}],"outputs":[{"name":"","type":"address","internalType":"address"}],"stateMutability":"view"},{"type":"function","name":"bills","inputs":[{"name":"","type":"uint256","internalType":"uint256"},{"name":"","type":"uint256","internalType":"uint256"}],"outputs":[{"name":"name","type":"string","internalType":"string"},{"name":"cost","type":"uint256","internalType":"uint256"},{"name":"owner","type":"address","internalType":"address"}],"stateMutability":"view"},{"type":"function","name":"createBill","inputs":[{"name":"menus","type":"tuple[]","internalType":"struct BillBite.Menu[]","components":[{"name":"name","type":"string","internalType":"string"},{"name":"cost","type":"uint256","internalType":"uint256"},{"name":"owner","type":"address","internalType":"address"}]}],"outputs":[{"name":"","type":"uint256","internalType":"uint256"}],"stateMutability":"nonpayable"},{"type":"function","name":"currentBillId","inputs":[],"outputs":[{"name":"","type":"uint256","internalType":"uint256"}],"stateMutability":"view"},{"type":"function","name":"getBillCost","inputs":[{"name":"billId","type":"uint256","internalType":"uint256"}],"outputs":[{"name":"totalCost","type":"uint256","internalType":"uint256"}],"stateMutability":"view"},{"type":"function","name":"getBillDetail","inputs":[{"name":"billId","type":"uint256","internalType":"uint256"}],"outputs":[{"name":"","type":"tuple[]","internalType":"struct BillBite.Menu[]","components":[{"name":"name","type":"string","internalType":"string"},{"name":"cost","type":"uint256","internalType":"uint256"},{"name":"owner","type":"address","internalType":"address"}]}],"stateMutability":"view"},{"type":"function","name":"pay","inputs":[{"name":"billId","type":"uint256","internalType":"uint256"},{"name":"token","type":"address","internalType":"address"}],"outputs":[],"stateMutability":"nonpayable"},{"type":"function","name":"selectMenu","inputs":[{"name":"billId","type":"uint256","internalType":"uint256"},{"name":"menuIndex","type":"uint256[]","internalType":"uint256[]"}],"outputs":[],"stateMutability":"nonpayable"},{"type":"event","name":"BillCreated","inputs":[{"name":"billId","type":"uint256","indexed":false,"internalType":"uint256"},{"name":"menuCount","type":"uint256","indexed":false,"internalType":"uint256"},{"name":"restaurant","type":"address","indexed":false,"internalType":"address"}],"anonymous":false},{"type":"event","name":"BillPaid","inputs":[{"name":"billId","type":"uint256","indexed":false,"internalType":"uint256"},{"name":"restaurant","type":"address","indexed":false,"internalType":"address"},{"name":"token","type":"address","indexed":false,"internalType":"address"}],"anonymous":false},{"type":"event","name":"MenuAdded","inputs":[{"name":"billId","type":"uint256","indexed":false,"internalType":"uint256"},{"name":"menu","type":"tuple","indexed":false,"internalType":"struct BillBite.Menu","components":[{"name":"name","type":"string","internalType":"string"},{"name":"cost","type":"uint256","internalType":"uint256"},{"name":"owner","type":"address","internalType":"address"}]}],"anonymous":false},{"type":"error","name":"MenuNotSelected","inputs":[{"name":"billId","type":"uint256","internalType":"uint256"},{"name":"menuIndex","type":"uint256","internalType":"uint256"}]}],"bytecode":{"object":"0x6080604052348015600e575f5ffd5b506117258061001c5f395ff3fe608060405234801561000f575f5ffd5b5060043610610086575f3560e01c8063617372de11610059578063617372de14610122578063a4964e7114610140578063e06e34c714610170578063f0962151146101a057610086565b80631ae67a701461008a5780632f0a1b15146100ba57806331cbf5e3146100d65780633453bf95146100f2575b5f5ffd5b6100a4600480360381019061009f9190610a08565b6101d2565b6040516100b19190610bf9565b60405180910390f35b6100d460048036038101906100cf9190610d59565b61032d565b005b6100f060048036038101906100eb9190610ddd565b6103d7565b005b61010c60048036038101906101079190610a08565b61066d565b6040516101199190610e2a565b60405180910390f35b61012a6106d7565b6040516101379190610e2a565b60405180910390f35b61015a60048036038101906101559190610a08565b6106dc565b6040516101679190610e52565b60405180910390f35b61018a6004803603810190610185919061107e565b61070c565b6040516101979190610e2a565b60405180910390f35b6101ba60048036038101906101b591906110c5565b6108df565b6040516101c99392919061114b565b60405180910390f35b606060015f8381526020019081526020015f20805480602002602001604051908101604052809291908181526020015f905b82821015610322578382905f5260205f2090600302016040518060600160405290815f82018054610234906111b4565b80601f0160208091040260200160405190810160405280929190818152602001828054610260906111b4565b80156102ab5780601f10610282576101008083540402835291602001916102ab565b820191905f5260205f20905b81548152906001019060200180831161028e57829003601f168201915b5050505050815260200160018201548152602001600282015f9054906101000a900473ffffffffffffffffffffffffffffffffffffffff1673ffffffffffffffffffffffffffffffffffffffff1673ffffffffffffffffffffffffffffffffffffffff168152505081526020019060010190610204565b505050509050919050565b5f5f90505b81518110156103d2573360015f8581526020019081526020015f208383815181106103605761035f6111e4565b5b602002602001015181548110610379576103786111e4565b5b905f5260205f2090600302016002015f6101000a81548173ffffffffffffffffffffffffffffffffffffffff021916908373ffffffffffffffffffffffffffffffffffffffff1602179055508080600101915050610332565b505050565b5f6103e1836101d2565b90505f5f90505b8151811015610548575f73ffffffffffffffffffffffffffffffffffffffff1682828151811061041b5761041a6111e4565b5b60200260200101516040015173ffffffffffffffffffffffffffffffffffffffff16036104815783816040517f4d94daff000000000000000000000000000000000000000000000000000000008152600401610478929190611211565b60405180910390fd5b8273ffffffffffffffffffffffffffffffffffffffff166323b872dd8383815181106104b0576104af6111e4565b5b602002602001015160400151308585815181106104d0576104cf6111e4565b5b6020026020010151602001516040518463ffffffff1660e01b81526004016104fa93929190611238565b6020604051808303815f875af1158015610516573d5f5f3e3d5ffd5b505050506040513d601f19601f8201168201806040525081019061053a91906112a2565b5080806001019150506103e8565b508173ffffffffffffffffffffffffffffffffffffffff1663a9059cbb60025f8681526020019081526020015f205f9054906101000a900473ffffffffffffffffffffffffffffffffffffffff1661059f8661066d565b6040518363ffffffff1660e01b81526004016105bc9291906112cd565b6020604051808303815f875af11580156105d8573d5f5f3e3d5ffd5b505050506040513d601f19601f820116820180604052508101906105fc91906112a2565b507fa32f88b36d46469b0030e2de2ee1ac8416c96afcec241b18937434dc492ba7768360025f8681526020019081526020015f205f9054906101000a900473ffffffffffffffffffffffffffffffffffffffff1684604051610660939291906112f4565b60405180910390a1505050565b5f5f60015f8481526020019081526020015f2090505f5f90505b81805490508110156106d0578181815481106106a6576106a56111e4565b5b905f5260205f20906003020160010154836106c19190611356565b92508080600101915050610687565b5050919050565b5f5481565b6002602052805f5260405f205f915054906101000a900473ffffffffffffffffffffffffffffffffffffffff1681565b5f5f5f90505b82518110156108355760015f5f5481526020019081526020015f208382815181106107405761073f6111e4565b5b6020026020010151908060018154018082558091505060019003905f5260205f2090600302015f909190919091505f820151815f0190816107819190611529565b50602082015181600101556040820151816002015f6101000a81548173ffffffffffffffffffffffffffffffffffffffff021916908373ffffffffffffffffffffffffffffffffffffffff16021790555050507fedab9ab824641b939252e073b98ca32e0d334a42e35e2e1c08664c4ead81f5cb5f5484838151811061080a576108096111e4565b5b6020026020010151604051610820929190611645565b60405180910390a18080600101915050610712565b503360025f5f5481526020019081526020015f205f6101000a81548173ffffffffffffffffffffffffffffffffffffffff021916908373ffffffffffffffffffffffffffffffffffffffff1602179055507fb3128dc42b5d16bbd577fe917fa12d6e68b25e9ee19c25ab41c2f8867bc2e3dd5f548351336040516108bb93929190611673565b60405180910390a15f5f8154809291906108d4906116a8565b919050559050919050565b6001602052815f5260405f2081815481106108f8575f80fd5b905f5260205f2090600302015f9150915050805f018054610918906111b4565b80601f0160208091040260200160405190810160405280929190818152602001828054610944906111b4565b801561098f5780601f106109665761010080835404028352916020019161098f565b820191905f5260205f20905b81548152906001019060200180831161097257829003601f168201915b505050505090806001015490806002015f9054906101000a900473ffffffffffffffffffffffffffffffffffffffff16905083565b5f604051905090565b5f5ffd5b5f5ffd5b5f819050919050565b6109e7816109d5565b81146109f1575f5ffd5b50565b5f81359050610a02816109de565b92915050565b5f60208284031215610a1d57610a1c6109cd565b5b5f610a2a848285016109f4565b91505092915050565b5f81519050919050565b5f82825260208201905092915050565b5f819050602082019050919050565b5f81519050919050565b5f82825260208201905092915050565b8281835e5f83830152505050565b5f601f19601f8301169050919050565b5f610a9e82610a5c565b610aa88185610a66565b9350610ab8818560208601610a76565b610ac181610a84565b840191505092915050565b610ad5816109d5565b82525050565b5f73ffffffffffffffffffffffffffffffffffffffff82169050919050565b5f610b0482610adb565b9050919050565b610b1481610afa565b82525050565b5f606083015f8301518482035f860152610b348282610a94565b9150506020830151610b496020860182610acc565b506040830151610b5c6040860182610b0b565b508091505092915050565b5f610b728383610b1a565b905092915050565b5f602082019050919050565b5f610b9082610a33565b610b9a8185610a3d565b935083602082028501610bac85610a4d565b805f5b85811015610be75784840389528151610bc88582610b67565b9450610bd383610b7a565b925060208a01995050600181019050610baf565b50829750879550505050505092915050565b5f6020820190508181035f830152610c118184610b86565b905092915050565b5f5ffd5b7f4e487b71000000000000000000000000000000000000000000000000000000005f52604160045260245ffd5b610c5382610a84565b810181811067ffffffffffffffff82111715610c7257610c71610c1d565b5b80604052505050565b5f610c846109c4565b9050610c908282610c4a565b919050565b5f67ffffffffffffffff821115610caf57610cae610c1d565b5b602082029050602081019050919050565b5f5ffd5b5f610cd6610cd184610c95565b610c7b565b90508083825260208201905060208402830185811115610cf957610cf8610cc0565b5b835b81811015610d225780610d0e88826109f4565b845260208401935050602081019050610cfb565b5050509392505050565b5f82601f830112610d4057610d3f610c19565b5b8135610d50848260208601610cc4565b91505092915050565b5f5f60408385031215610d6f57610d6e6109cd565b5b5f610d7c858286016109f4565b925050602083013567ffffffffffffffff811115610d9d57610d9c6109d1565b5b610da985828601610d2c565b9150509250929050565b610dbc81610afa565b8114610dc6575f5ffd5b50565b5f81359050610dd781610db3565b92915050565b5f5f60408385031215610df357610df26109cd565b5b5f610e00858286016109f4565b9250506020610e1185828601610dc9565b9150509250929050565b610e24816109d5565b82525050565b5f602082019050610e3d5f830184610e1b565b92915050565b610e4c81610afa565b82525050565b5f602082019050610e655f830184610e43565b92915050565b5f67ffffffffffffffff821115610e8557610e84610c1d565b5b602082029050602081019050919050565b5f5ffd5b5f5ffd5b5f5ffd5b5f67ffffffffffffffff821115610ebc57610ebb610c1d565b5b610ec582610a84565b9050602081019050919050565b828183375f83830152505050565b5f610ef2610eed84610ea2565b610c7b565b905082815260208101848484011115610f0e57610f0d610e9e565b5b610f19848285610ed2565b509392505050565b5f82601f830112610f3557610f34610c19565b5b8135610f45848260208601610ee0565b91505092915050565b5f60608284031215610f6357610f62610e96565b5b610f6d6060610c7b565b90505f82013567ffffffffffffffff811115610f8c57610f8b610e9a565b5b610f9884828501610f21565b5f830152506020610fab848285016109f4565b6020830152506040610fbf84828501610dc9565b60408301525092915050565b5f610fdd610fd884610e6b565b610c7b565b9050808382526020820190506020840283018581111561100057610fff610cc0565b5b835b8181101561104757803567ffffffffffffffff81111561102557611024610c19565b5b8086016110328982610f4e565b85526020850194505050602081019050611002565b5050509392505050565b5f82601f83011261106557611064610c19565b5b8135611075848260208601610fcb565b91505092915050565b5f60208284031215611093576110926109cd565b5b5f82013567ffffffffffffffff8111156110b0576110af6109d1565b5b6110bc84828501611051565b91505092915050565b5f5f604083850312156110db576110da6109cd565b5b5f6110e8858286016109f4565b92505060206110f9858286016109f4565b9150509250929050565b5f82825260208201905092915050565b5f61111d82610a5c565b6111278185611103565b9350611137818560208601610a76565b61114081610a84565b840191505092915050565b5f6060820190508181035f8301526111638186611113565b90506111726020830185610e1b565b61117f6040830184610e43565b949350505050565b7f4e487b71000000000000000000000000000000000000000000000000000000005f52602260045260245ffd5b5f60028204905060018216806111cb57607f821691505b6020821081036111de576111dd611187565b5b50919050565b7f4e487b71000000000000000000000000000000000000000000000000000000005f52603260045260245ffd5b5f6040820190506112245f830185610e1b565b6112316020830184610e1b565b9392505050565b5f60608201905061124b5f830186610e43565b6112586020830185610e43565b6112656040830184610e1b565b949350505050565b5f8115159050919050565b6112818161126d565b811461128b575f5ffd5b50565b5f8151905061129c81611278565b92915050565b5f602082840312156112b7576112b66109cd565b5b5f6112c48482850161128e565b91505092915050565b5f6040820190506112e05f830185610e43565b6112ed6020830184610e1b565b9392505050565b5f6060820190506113075f830186610e1b565b6113146020830185610e43565b6113216040830184610e43565b949350505050565b7f4e487b71000000000000000000000000000000000000000000000000000000005f52601160045260245ffd5b5f611360826109d5565b915061136b836109d5565b925082820190508082111561138357611382611329565b5b92915050565b5f819050815f5260205f209050919050565b5f6020601f8301049050919050565b5f82821b905092915050565b5f600883026113e57fffffffffffffffffffffffffffffffffffffffffffffffffffffffffffffffff826113aa565b6113ef86836113aa565b95508019841693508086168417925050509392505050565b5f819050919050565b5f61142a611425611420846109d5565b611407565b6109d5565b9050919050565b5f819050919050565b61144383611410565b61145761144f82611431565b8484546113b6565b825550505050565b5f5f905090565b61146e61145f565b61147981848461143a565b505050565b5b8181101561149c576114915f82611466565b60018101905061147f565b5050565b601f8211156114e1576114b281611389565b6114bb8461139b565b810160208510156114ca578190505b6114de6114d68561139b565b83018261147e565b50505b505050565b5f82821c905092915050565b5f6115015f19846008026114e6565b1980831691505092915050565b5f61151983836114f2565b9150826002028217905092915050565b61153282610a5c565b67ffffffffffffffff81111561154b5761154a610c1d565b5b61155582546111b4565b6115608282856114a0565b5f60209050601f831160018114611591575f841561157f578287015190505b611589858261150e565b8655506115f0565b601f19841661159f86611389565b5f5b828110156115c6578489015182556001820191506020850194506020810190506115a1565b868310156115e357848901516115df601f8916826114f2565b8355505b6001600288020188555050505b505050505050565b5f606083015f8301518482035f8601526116128282610a94565b91505060208301516116276020860182610acc565b50604083015161163a6040860182610b0b565b508091505092915050565b5f6040820190506116585f830185610e1b565b818103602083015261166a81846115f8565b90509392505050565b5f6060820190506116865f830186610e1b565b6116936020830185610e1b565b6116a06040830184610e43565b949350505050565b5f6116b2826109d5565b91507fffffffffffffffffffffffffffffffffffffffffffffffffffffffffffffffff82036116e4576116e3611329565b5b60018201905091905056fea2646970667358221220c1d0c3b03073cf8ba37f41831a0c510e4fa39265dbd15815328117827482b65764736f6c634300081c0033","linkReferences":{}},"methodIdentifiers":{"billRestaurant(uint256)":"a4964e71","bills(uint256,uint256)":"f0962151","createBill((string,uint256,address)[])":"e06e34c7","currentBillId()":"617372de","getBillCost(uint256)":"3453bf95","getBillDetail(uint256)":"1ae67a70","pay(uint256,address)":"31cbf5e3","selectMenu(uint256,uint256[])":"2f0a1b15"},"id":28}